{
  "_format": "hh-sol-artifact-1",
  "contractName": "CampaignFactory",
  "sourceName": "contracts/Campaign.sol",
  "abi": [
    {
      "inputs": [],
      "stateMutability": "nonpayable",
      "type": "constructor"
    },
    {
      "anonymous": false,
      "inputs": [
        {
          "indexed": true,
          "internalType": "address",
          "name": "from",
          "type": "address"
        },
        {
          "indexed": false,
          "internalType": "string",
          "name": "name",
          "type": "string"
        },
        {
          "indexed": false,
          "internalType": "string",
          "name": "message",
          "type": "string"
        },
        {
          "indexed": false,
          "internalType": "uint256",
          "name": "timestamp",
          "type": "uint256"
        },
        {
          "indexed": false,
          "internalType": "uint256",
          "name": "amount",
          "type": "uint256"
        }
      ],
      "name": "Donation",
      "type": "event"
    },
    {
      "anonymous": false,
      "inputs": [
        {
          "indexed": false,
          "internalType": "string",
          "name": "title",
          "type": "string"
        },
        {
          "indexed": false,
          "internalType": "uint256",
          "name": "requiredAmount",
          "type": "uint256"
        },
        {
          "indexed": true,
          "internalType": "address",
          "name": "owner",
          "type": "address"
        },
        {
          "indexed": false,
          "internalType": "address",
          "name": "campaignAddress",
          "type": "address"
        },
        {
          "indexed": false,
          "internalType": "string",
          "name": "imgURI",
          "type": "string"
        },
        {
          "indexed": true,
          "internalType": "uint256",
          "name": "timestamp",
          "type": "uint256"
        },
        {
          "indexed": true,
          "internalType": "string",
          "name": "category",
          "type": "string"
        }
      ],
      "name": "campaignCreated",
      "type": "event"
    },
    {
      "anonymous": false,
      "inputs": [
        {
          "indexed": true,
          "internalType": "address",
          "name": "donar",
          "type": "address"
        },
        {
          "indexed": true,
          "internalType": "uint256",
          "name": "amount",
          "type": "uint256"
        },
        {
          "indexed": true,
          "internalType": "uint256",
          "name": "timestamp",
          "type": "uint256"
        }
      ],
      "name": "donated",
      "type": "event"
    },
    {
      "inputs": [],
      "name": "Rowner",
      "outputs": [
        {
          "internalType": "address payable",
          "name": "",
          "type": "address"
        }
      ],
      "stateMutability": "view",
      "type": "function"
    },
    {
      "inputs": [
        {
          "internalType": "string",
          "name": "name",
          "type": "string"
        },
        {
          "internalType": "string",
          "name": "message",
          "type": "string"
        }
      ],
      "name": "buyChai",
      "outputs": [],
      "stateMutability": "payable",
      "type": "function"
    },
    {
      "inputs": [
        {
          "internalType": "string",
          "name": "campaignTitle",
          "type": "string"
        },
        {
          "internalType": "uint256",
          "name": "requiredCampaignAmount",
          "type": "uint256"
        },
        {
          "internalType": "string",
          "name": "imgURI",
          "type": "string"
        },
        {
          "internalType": "string",
          "name": "category",
          "type": "string"
        },
        {
          "internalType": "string",
          "name": "storyURI",
          "type": "string"
        }
      ],
      "name": "createCampaign",
      "outputs": [],
      "stateMutability": "nonpayable",
      "type": "function"
    },
    {
      "inputs": [
        {
          "internalType": "uint256",
          "name": "",
          "type": "uint256"
        }
      ],
      "name": "deployedCampaigns",
      "outputs": [
        {
          "internalType": "address",
          "name": "",
          "type": "address"
        }
      ],
      "stateMutability": "view",
      "type": "function"
    },
    {
      "inputs": [
        {
          "internalType": "uint256",
          "name": "requiredAmount1",
          "type": "uint256"
        }
      ],
      "name": "donate",
      "outputs": [],
      "stateMutability": "payable",
      "type": "function"
    },
    {
      "inputs": [],
      "name": "getBalance",
      "outputs": [
        {
          "internalType": "uint256",
          "name": "",
          "type": "uint256"
        }
      ],
      "stateMutability": "view",
      "type": "function"
    },
    {
      "inputs": [],
      "name": "getMemos",
      "outputs": [
        {
          "components": [
            {
              "internalType": "string",
              "name": "name",
              "type": "string"
            },
            {
              "internalType": "string",
              "name": "message",
              "type": "string"
            },
            {
              "internalType": "uint256",
              "name": "timestamp",
              "type": "uint256"
            },
            {
              "internalType": "address",
              "name": "from",
              "type": "address"
            }
          ],
          "internalType": "struct CampaignFactory.Memo[]",
          "name": "",
          "type": "tuple[]"
        }
      ],
      "stateMutability": "view",
      "type": "function"
    },
    {
      "inputs": [],
      "name": "owner",
      "outputs": [
        {
          "internalType": "address payable",
          "name": "",
          "type": "address"
        }
      ],
      "stateMutability": "view",
      "type": "function"
    },
    {
      "inputs": [],
      "name": "receivedAmount",
      "outputs": [
        {
          "internalType": "uint256",
          "name": "",
          "type": "uint256"
        }
      ],
      "stateMutability": "view",
      "type": "function"
    },
    {
      "inputs": [],
      "name": "requiredAmount",
      "outputs": [
        {
          "internalType": "uint256",
          "name": "",
          "type": "uint256"
        }
      ],
      "stateMutability": "view",
      "type": "function"
    }
  ],
  "bytecode": "0x608060405234801561001057600080fd5b5033600460006101000a81548173ffffffffffffffffffffffffffffffffffffffff021916908373ffffffffffffffffffffffffffffffffffffffff160217905550611f21806100616000396000f3fe6080604052600436106200009e5760003560e01c80638da5cb5b11620000615780638da5cb5b14620001975780639632e72014620001c7578063a0d1804514620001f7578063c658857d1462000227578063f14faf6f1462000255576200009e565b806312065fe014620000a3578063339d50a514620000d357806348b9ef4014620001175780636a13d8591462000147578063865c51721462000167575b600080fd5b348015620000b057600080fd5b50620000bb62000275565b604051620000ca919062000980565b60405180910390f35b348015620000e057600080fd5b50620000ff6004803603810190620000f99190620009e2565b620002b6565b6040516200010e919062000a59565b60405180910390f35b3480156200012457600080fd5b506200012f620002f6565b6040516200013e919062000980565b60405180910390f35b6200016560048036038101906200015f919062000bd8565b620002fc565b005b3480156200017457600080fd5b506200017f620004f9565b6040516200018e919062000e54565b60405180910390f35b348015620001a457600080fd5b50620001af620006ee565b604051620001be919062000e9d565b60405180910390f35b348015620001d457600080fd5b50620001df62000714565b604051620001ee919062000980565b60405180910390f35b3480156200020457600080fd5b506200020f6200071a565b6040516200021e919062000e9d565b60405180910390f35b3480156200023457600080fd5b506200025360048036038101906200024d919062000eba565b62000740565b005b6200027360048036038101906200026d9190620009e2565b6200085f565b005b6000600460009054906101000a900473ffffffffffffffffffffffffffffffffffffffff1673ffffffffffffffffffffffffffffffffffffffff1631905090565b60008181548110620002c757600080fd5b906000526020600020016000915054906101000a900473ffffffffffffffffffffffffffffffffffffffff1681565b60015481565b6000341162000342576040517f08c379a0000000000000000000000000000000000000000000000000000000008152600401620003399062001045565b60405180910390fd5b600460009054906101000a900473ffffffffffffffffffffffffffffffffffffffff1673ffffffffffffffffffffffffffffffffffffffff166108fc349081150290604051600060405180830381858888f19350505050158015620003ab573d6000803e3d6000fd5b50600360405180608001604052808481526020018381526020014281526020013373ffffffffffffffffffffffffffffffffffffffff16815250908060018154018082558091505060019003906000526020600020906004020160009091909190915060008201518160000190805190602001906200042c929190620008a7565b5060208201518160010190805190602001906200044b929190620008a7565b506040820151816002015560608201518160030160006101000a81548173ffffffffffffffffffffffffffffffffffffffff021916908373ffffffffffffffffffffffffffffffffffffffff16021790555050503373ffffffffffffffffffffffffffffffffffffffff167fdd10e0ac7ff4472e4e130e66c1b79a146ea2f69e23abeb3c96097d9066eaa20483834234604051620004ed9493929190620010a8565b60405180910390a25050565b60606003805480602002602001604051908101604052809291908181526020016000905b82821015620006e55783829060005260206000209060040201604051806080016040529081600082018054620005539062001132565b80601f0160208091040260200160405190810160405280929190818152602001828054620005819062001132565b8015620005d25780601f10620005a657610100808354040283529160200191620005d2565b820191906000526020600020905b815481529060010190602001808311620005b457829003601f168201915b50505050508152602001600182018054620005ed9062001132565b80601f01602080910402602001604051908101604052809291908181526020018280546200061b9062001132565b80156200066c5780601f1062000640576101008083540402835291602001916200066c565b820191906000526020600020905b8154815290600101906020018083116200064e57829003601f168201915b50505050508152602001600282015481526020016003820160009054906101000a900473ffffffffffffffffffffffffffffffffffffffff1673ffffffffffffffffffffffffffffffffffffffff1673ffffffffffffffffffffffffffffffffffffffff1681525050815260200190600101906200051d565b50505050905090565b600560009054906101000a900473ffffffffffffffffffffffffffffffffffffffff1681565b60025481565b600460009054906101000a900473ffffffffffffffffffffffffffffffffffffffff1681565b60008585858433604051620007559062000938565b6200076595949392919062001168565b604051809103906000f08015801562000782573d6000803e3d6000fd5b5090506000819080600181540180825580915050600190039060005260206000200160009091909190916101000a81548173ffffffffffffffffffffffffffffffffffffffff021916908373ffffffffffffffffffffffffffffffffffffffff16021790555082604051620007f891906200121c565b6040518091039020423373ffffffffffffffffffffffffffffffffffffffff167ff932d905365211c7f19fda44bcb55b1adbe63365f7cdae1c35ddcb3e38ed1d468989868a6040516200084f949392919062001235565b60405180910390a4505050505050565b42813373ffffffffffffffffffffffffffffffffffffffff167fe6add99d06d9ad7fc456e746aa162eed6211c5002ef2dacdd67b8d2016822fba60405160405180910390a450565b828054620008b59062001132565b90600052602060002090601f016020900481019282620008d9576000855562000925565b82601f10620008f457805160ff191683800117855562000925565b8280016001018555821562000925579182015b828111156200092457825182559160200191906001019062000907565b5b50905062000934919062000946565b5090565b610c5b806200129183390190565b5b808211156200096157600081600090555060010162000947565b5090565b6000819050919050565b6200097a8162000965565b82525050565b60006020820190506200099760008301846200096f565b92915050565b6000604051905090565b600080fd5b600080fd5b620009bc8162000965565b8114620009c857600080fd5b50565b600081359050620009dc81620009b1565b92915050565b600060208284031215620009fb57620009fa620009a7565b5b600062000a0b84828501620009cb565b91505092915050565b600073ffffffffffffffffffffffffffffffffffffffff82169050919050565b600062000a418262000a14565b9050919050565b62000a538162000a34565b82525050565b600060208201905062000a70600083018462000a48565b92915050565b600080fd5b600080fd5b6000601f19601f8301169050919050565b7f4e487b7100000000000000000000000000000000000000000000000000000000600052604160045260246000fd5b62000acb8262000a80565b810181811067ffffffffffffffff8211171562000aed5762000aec62000a91565b5b80604052505050565b600062000b026200099d565b905062000b10828262000ac0565b919050565b600067ffffffffffffffff82111562000b335762000b3262000a91565b5b62000b3e8262000a80565b9050602081019050919050565b82818337600083830152505050565b600062000b7162000b6b8462000b15565b62000af6565b90508281526020810184848401111562000b905762000b8f62000a7b565b5b62000b9d84828562000b4b565b509392505050565b600082601f83011262000bbd5762000bbc62000a76565b5b813562000bcf84826020860162000b5a565b91505092915050565b6000806040838503121562000bf25762000bf1620009a7565b5b600083013567ffffffffffffffff81111562000c135762000c12620009ac565b5b62000c218582860162000ba5565b925050602083013567ffffffffffffffff81111562000c455762000c44620009ac565b5b62000c538582860162000ba5565b9150509250929050565b600081519050919050565b600082825260208201905092915050565b6000819050602082019050919050565b600081519050919050565b600082825260208201905092915050565b60005b8381101562000cc557808201518184015260208101905062000ca8565b8381111562000cd5576000848401525b50505050565b600062000ce88262000c89565b62000cf4818562000c94565b935062000d0681856020860162000ca5565b62000d118162000a80565b840191505092915050565b62000d278162000965565b82525050565b62000d388162000a34565b82525050565b6000608083016000830151848203600086015262000d5d828262000cdb565b9150506020830151848203602086015262000d79828262000cdb565b915050604083015162000d90604086018262000d1c565b50606083015162000da5606086018262000d2d565b508091505092915050565b600062000dbe838362000d3e565b905092915050565b6000602082019050919050565b600062000de08262000c5d565b62000dec818562000c68565b93508360208202850162000e008562000c79565b8060005b8581101562000e42578484038952815162000e20858262000db0565b945062000e2d8362000dc6565b925060208a0199505060018101905062000e04565b50829750879550505050505092915050565b6000602082019050818103600083015262000e70818462000dd3565b905092915050565b600062000e858262000a14565b9050919050565b62000e978162000e78565b82525050565b600060208201905062000eb4600083018462000e8c565b92915050565b600080600080600060a0868803121562000ed95762000ed8620009a7565b5b600086013567ffffffffffffffff81111562000efa5762000ef9620009ac565b5b62000f088882890162000ba5565b955050602062000f1b88828901620009cb565b945050604086013567ffffffffffffffff81111562000f3f5762000f3e620009ac565b5b62000f4d8882890162000ba5565b935050606086013567ffffffffffffffff81111562000f715762000f70620009ac565b5b62000f7f8882890162000ba5565b925050608086013567ffffffffffffffff81111562000fa35762000fa2620009ac565b5b62000fb18882890162000ba5565b9150509295509295909350565b600082825260208201905092915050565b7f506c656173652070617920736f6d657468696e6720677265617465722074686160008201527f6e20300000000000000000000000000000000000000000000000000000000000602082015250565b60006200102d60238362000fbe565b91506200103a8262000fcf565b604082019050919050565b6000602082019050818103600083015262001060816200101e565b9050919050565b6000620010748262000c89565b62001080818562000fbe565b93506200109281856020860162000ca5565b6200109d8162000a80565b840191505092915050565b60006080820190508181036000830152620010c4818762001067565b90508181036020830152620010da818662001067565b9050620010eb60408301856200096f565b620010fa60608301846200096f565b95945050505050565b7f4e487b7100000000000000000000000000000000000000000000000000000000600052602260045260246000fd5b600060028204905060018216806200114b57607f821691505b6020821081141562001162576200116162001103565b5b50919050565b600060a082019050818103600083015262001184818862001067565b90506200119560208301876200096f565b8181036040830152620011a9818662001067565b90508181036060830152620011bf818562001067565b9050620011d0608083018462000a48565b9695505050505050565b600081905092915050565b6000620011f28262000c89565b620011fe8185620011da565b93506200121081856020860162000ca5565b80840191505092915050565b60006200122a8284620011e5565b915081905092915050565b6000608082019050818103600083015262001251818762001067565b90506200126260208301866200096f565b62001271604083018562000a48565b818103606083015262001285818462001067565b90509594505050505056fe60806040523480156200001157600080fd5b5060405162000c5b38038062000c5b8339818101604052810190620000379190620003c2565b84600090805190602001906200004f929190620000d5565b508360018190555082600290805190602001906200006f929190620000d5565b50816003908051906020019062000088929190620000d5565b5080600460006101000a81548173ffffffffffffffffffffffffffffffffffffffff021916908373ffffffffffffffffffffffffffffffffffffffff16021790555050505050506200050c565b828054620000e390620004d6565b90600052602060002090601f01602090048101928262000107576000855562000153565b82601f106200012257805160ff191683800117855562000153565b8280016001018555821562000153579182015b828111156200015257825182559160200191906001019062000135565b5b50905062000162919062000166565b5090565b5b808211156200018157600081600090555060010162000167565b5090565b6000604051905090565b600080fd5b600080fd5b600080fd5b600080fd5b6000601f19601f8301169050919050565b7f4e487b7100000000000000000000000000000000000000000000000000000000600052604160045260246000fd5b620001ee82620001a3565b810181811067ffffffffffffffff8211171562000210576200020f620001b4565b5b80604052505050565b60006200022562000185565b9050620002338282620001e3565b919050565b600067ffffffffffffffff821115620002565762000255620001b4565b5b6200026182620001a3565b9050602081019050919050565b60005b838110156200028e57808201518184015260208101905062000271565b838111156200029e576000848401525b50505050565b6000620002bb620002b58462000238565b62000219565b905082815260208101848484011115620002da57620002d96200019e565b5b620002e78482856200026e565b509392505050565b600082601f83011262000307576200030662000199565b5b815162000319848260208601620002a4565b91505092915050565b6000819050919050565b620003378162000322565b81146200034357600080fd5b50565b60008151905062000357816200032c565b92915050565b600073ffffffffffffffffffffffffffffffffffffffff82169050919050565b60006200038a826200035d565b9050919050565b6200039c816200037d565b8114620003a857600080fd5b50565b600081519050620003bc8162000391565b92915050565b600080600080600060a08688031215620003e157620003e06200018f565b5b600086015167ffffffffffffffff81111562000402576200040162000194565b5b6200041088828901620002ef565b9550506020620004238882890162000346565b945050604086015167ffffffffffffffff81111562000447576200044662000194565b5b6200045588828901620002ef565b935050606086015167ffffffffffffffff81111562000479576200047862000194565b5b6200048788828901620002ef565b92505060806200049a88828901620003ab565b9150509295509295909350565b7f4e487b7100000000000000000000000000000000000000000000000000000000600052602260045260246000fd5b60006002820490506001821680620004ef57607f821691505b60208210811415620005065762000505620004a7565b5b50919050565b61073f806200051c6000396000f3fe6080604052600436106100705760003560e01c80638da5cb5b1161004e5780638da5cb5b146100f65780639632e72014610121578063ed88c68e1461014c578063f3ccaac01461015657610070565b806346c922d11461007557806348b9ef40146100a05780634a79d50c146100cb575b600080fd5b34801561008157600080fd5b5061008a610181565b6040516100979190610505565b60405180910390f35b3480156100ac57600080fd5b506100b561020f565b6040516100c29190610540565b60405180910390f35b3480156100d757600080fd5b506100e0610215565b6040516100ed9190610505565b60405180910390f35b34801561010257600080fd5b5061010b6102a3565b604051610118919061059c565b60405180910390f35b34801561012d57600080fd5b506101366102c9565b6040516101439190610540565b60405180910390f35b6101546102cf565b005b34801561016257600080fd5b5061016b6103de565b6040516101789190610505565b60405180910390f35b6003805461018e906105e6565b80601f01602080910402602001604051908101604052809291908181526020018280546101ba906105e6565b80156102075780601f106101dc57610100808354040283529160200191610207565b820191906000526020600020905b8154815290600101906020018083116101ea57829003601f168201915b505050505081565b60015481565b60008054610222906105e6565b80601f016020809104026020016040519081016040528092919081815260200182805461024e906105e6565b801561029b5780601f106102705761010080835404028352916020019161029b565b820191906000526020600020905b81548152906001019060200180831161027e57829003601f168201915b505050505081565b600460009054906101000a900473ffffffffffffffffffffffffffffffffffffffff1681565b60055481565b60055460015411610315576040517f08c379a000000000000000000000000000000000000000000000000000000000815260040161030c90610664565b60405180910390fd5b600460009054906101000a900473ffffffffffffffffffffffffffffffffffffffff1673ffffffffffffffffffffffffffffffffffffffff166108fc349081150290604051600060405180830381858888f1935050505015801561037d573d6000803e3d6000fd5b50346005600082825461039091906106b3565b9250508190555042343373ffffffffffffffffffffffffffffffffffffffff167fe6add99d06d9ad7fc456e746aa162eed6211c5002ef2dacdd67b8d2016822fba60405160405180910390a4565b600280546103eb906105e6565b80601f0160208091040260200160405190810160405280929190818152602001828054610417906105e6565b80156104645780601f1061043957610100808354040283529160200191610464565b820191906000526020600020905b81548152906001019060200180831161044757829003601f168201915b505050505081565b600081519050919050565b600082825260208201905092915050565b60005b838110156104a657808201518184015260208101905061048b565b838111156104b5576000848401525b50505050565b6000601f19601f8301169050919050565b60006104d78261046c565b6104e18185610477565b93506104f1818560208601610488565b6104fa816104bb565b840191505092915050565b6000602082019050818103600083015261051f81846104cc565b905092915050565b6000819050919050565b61053a81610527565b82525050565b60006020820190506105556000830184610531565b92915050565b600073ffffffffffffffffffffffffffffffffffffffff82169050919050565b60006105868261055b565b9050919050565b6105968161057b565b82525050565b60006020820190506105b1600083018461058d565b92915050565b7f4e487b7100000000000000000000000000000000000000000000000000000000600052602260045260246000fd5b600060028204905060018216806105fe57607f821691505b60208210811415610612576106116105b7565b5b50919050565b7f726571756972656420616d6f756e742066756c6c66696c6c6564000000000000600082015250565b600061064e601a83610477565b915061065982610618565b602082019050919050565b6000602082019050818103600083015261067d81610641565b9050919050565b7f4e487b7100000000000000000000000000000000000000000000000000000000600052601160045260246000fd5b60006106be82610527565b91506106c983610527565b9250827fffffffffffffffffffffffffffffffffffffffffffffffffffffffffffffffff038211156106fe576106fd610684565b5b82820190509291505056fea26469706673582212206f0bb5384ea2f7fc23f22ee12d0ca3c0f61b0c0dcb3bc4044e1e395f9f0ec03064736f6c634300080a0033a2646970667358221220429931832b9746772dffc25770ba2c910f511e7acd35a14d26063d25eb225cdf64736f6c634300080a0033",
  "linkReferences": {},
  "deployedLinkReferences": {}
}